S017000075436869705667615F526163696E672E7372656343
S214006000487A002039870000358700003587000071
S214006010000000000000000000000000000000007B
S21400602000000000000000000000000035870000AF
S21400603000000000000000003587000035870000E3
S214006040358700003587000035870000358700005B
S214006050358700003587000035870000358700004B
S214006060D1E5000035870000358700003587000041
S21400607035870000000000000000000035870000A3
S2140060802100002035870000358700003587000096
S2140060903587000000000000000000003587000083
S2140060A035870000358700003587000035870000FB
S2140060B00000000010B5064C2378002B07D1054BD6
S2140060C0002B02D0044800E000BF0123237010BD5F
S2140060D0800B0020000000009CEE0300044B10B56F
S2140060E0002B03D00349044800E000BF10BDC046A3
S2140060F000000000840B00209CEE0300F0B545462F
S21400610057464E46DE46E0B5856A83B01223C75E24
S2140061101623C65E0190C36928682A69696898468E
S214006120EC683B1A5343721A62435B4352439B1814
S214006130AA68934200D259E1891BB24BC01B98470C
S2140061404346C61A8023DB059C46692301996644AC
S214006150CD5C002D01D06A1ECA5480231B069E42C9
S21400616000D93DE1002E20D1A74B9846691E8D41EF
S214006170012369426425019C994304312000C047ED
S214006180635DDA1E012A3ED95A1E012A00D89BE119
S214006190072B00D148E1052B00D19FE103B03CBCA2
S2140061A090469946A246AB46F0BD974B082101980B
S2140061B098469847019803680268D9174368100004
S2140061C09946DB179B46914B9A460B00D04709042D
S2140061D0070C0F435B464A4648465946D047C023FD
S2140061E09B049C46C0230904000C084366443818E8
S2140061F0DB049E42BAD98023DB029842B6D901213D
S2140062000198C047B2E7602220696169A25C042B4E
S21400621002D01F2310321A407D4E53019201955F23
S214006220F82201339200FF3313405B009E5F019A11
S214006230784B36012D0176429A4231D01A68571BA8
S2140062405A683F14921B121414005443A0463C0094
S2140062507C43A446E0444446002C1DDD1C69241AF9
S2140062602414A1465C69641A24146243A4464C466E
S2140062706743D21952000FD54C4667466443A14681
S2140062807F434F44403F002F06DD44467C43524345
S214006290A700D71B00D49CE05F4A019C944232D0F2
S2140062A05A6F571B9A6F3F14921B121414005443D4
S2140062B0A0463C007C43A446E0444446002C1EDD39
S2140062C084241C59241A2414A14688241C59641AB0
S2140062D024146243A4464C466743D21952000ED596
S2140062E04C4667466443A1467F434F44403F002FD9
S2140062F005DD44467C435243A700D71B69D5474A71
S214006300019C944235D0E8229F5804329A587F1B4D
S214006310921B1214140054433F14A0463C007C43C6
S214006320A446E0444446002C1EDDF8241C59241ADA
S2140063302414A146FC241C59641A24146243A4465F
S2140063404C466743D21952000ED54C466746644306
S214006350A1467F434F44403F002F05DD44467C4323
S2140063605243A700D71B34D52D4A019C944200D136
S21400637014E7AE2252009A58551BB02252009A5883
S2140063802D14961B36142F0032006F437243BF182D
S214006390002F00DC02E7B62252009A58101AB822E4
S2140063A052009A582B00511A0014091443434E43C6
S2140063B09B195B0000D4F1E640434943401840383F
S2140063C0002800DCEAE678435B4380001B1A00D511
S2140063D0E4E6612220210198835C0B438354DDE6CA
S2140063E0094B1021019898469847E3E60D4B9847CD
S2140063F0C30704D56B69019A936203CB9CE6AB692D
S214006400F9E7C0460D88000049650000D5F4000095
S21400641030E902006C120020E01200205413002025
S214006420C813002089DF0000019C304B206B616B95
S2140064309C420FD01A69151A5A692D14521A121452
S2140064406D43524352192A4DAA42C2DD1A007432D5
S214006450944212D0842288259A585D59121A6D1AD1
S21400646012142D146D4352435219214DAA42B0DD29
S2140064701A00019CE832944214D0F822FC259A585F
S2140064805D59121A6D1A12142D146D435243521987
S214006490174DAA429DDD1A00019C5D32FF329442E0
S2140064A000D17BE6B62252009A58101AB822520043
S2140064B09B580014591A0914404349430C4B401882
S2140064C0984200DD6AE684E70A4B9847FE231B02E3
S2140064D0184200D17DE7019B5B5D59E6B823019A1F
S2140064E05B02126A9A4200D973E757E66C120020E4
S2140064F0FF01000089DF0000652370B5C65C04005C
S2140065000D00002E0CD0032D09D8742169430B4BC7
S214006510C9188C4203D040310B8801330B8070BD04
S214006520074A013BC252074B984758234222E05283
S2140065300E33E654A35A0133A352E4E76C1200204C
S2140065400081FFFFF98C00006123C25C1143C15437
S2140065507047C046F0B5DE464E4657464546E0B55F
S2140065602B4B85B004000E0098470290002E3CDDB1
S21400657073009E19730003935C232500984610331E
S21400658000279946234E5E354A464346A25CE35AA8
S21400659093469A462B88742201931F4B00212000B5
S2140065A09C46E0474A465946A15442465146019BFE
S2140065B0A1522B80B369029AA362F369E36258235F
S2140065C0E252503BEB71033B2B7233697435DB1997
S2140065D01A880637120422615B881B046361736A9B
S2140065E0E361039B7434BB42CED1D72200210B4B10
S2140065F099544C220131FF329954C0220131FF32A6
S214006600995405B03CBC90469946A246AB46F0BDB0
S214006610F98C00002C1200209FF700006C1200205E
S214006620F0B557464E464546DE46652498466323F3
S214006630E0B56027A44693460457C25CE40F5200B8
S2140066402E4D1219D200AC18C65D646895B0A45DD4
S2140066505259009464460C57CB5CE40FA4465B008A
S2140066606344DB00CF5DEC185B590125DB5D646895
S21400667099460223E45D965D01942A001C00009F63
S2140066803C403A40019FA4463C001F402C400997DE
S2140066901623C55E1223C75E12200B5E08949A4628
S2140066A01623CB5EF1000393154B069158185E5CDB
S2140066B0417804914946C9008946595C009C02917C
S2140066C0139149465918497880780591042140B2BB
S2140066D0214017D0002A00D092E16446424292B28E
S2140066E010B20B9006981818C07840B2002C00D153
S2140066F091E1049C001B0A9080B216E070E403004F
S2140067009C4E0300002A00D069E16446404280B2F5
S21400671002B20A92069A9A18D27852B2002C00D187
S21400672069E1049C121B0B9292B255190422019C3B
S214006730C01922404C461F19BF7800B207902DB2F0
S2140067407FB2089C002A00D16CE1002C00D183E1C6
S214006750029C3C1B0D94A7B29C46CC446446E4784D
S21400676064B2A446099C002C00D16EE164460598EC
S214006770241AA0B284460C94D4446446079824B2E3
S214006780201A039C0990A44667443FB27C1B0894D9
S2140067900400C043C01704400394049F002900D19E
S2140067A037000598002A00D102983C1AA446099C96
S2140067B0A44500DD07190E96002901D104990E9113
S2140067C00299002A00D105990E9A0898521A824218
S2140067D003DD0A00844662440E92039A974200DC68
S2140067E01EE10899CA43D21711400E9A08008A4241
S2140067F000DC15E1009A002A00D054E1069A039DB9
S21400680099180200AC4672434C686244A218009283
S2140068107A1BB21A01260F92019A002A00D02BE1A9
S214006820029D089A2900821A51438C46039C099AB5
S2140068304B445B68A11A614459183B1BEB1A109332
S2140068400123139300235A46136053604246136095
S2140068505360C3B29C46FF230E9A1840814690426E
S21400686000DBDDE0039A002510001840D3B2129337
S21400687000230593FF33049300231190139803938A
S214006880FF330295824665469C464242009C06922D
S214006890119ABA4265DA684605714846079028009C
S2140068A055468246129B0095009D2078A946A4195D
S2140068B0494400284DD00698085C002849D0029824
S2140068C00A9D0130C0B202905846A9465D4600684F
S2140068D01018484428604046006881460C984A4490
S2140068E0814609984A44814640464A4402606A689E
S2140068F0079D0B98A9464A44814658464A4442603A
S2140069004246A94652680D984A44814608984A4429
S214006910814640464A44426062469C4500D91A1C5D
S2140069200398D2B294461A1C834200D2021CD2B2FA
S21400693003926A4604981279824500D9021CD2B2A4
S21400694004926A4605981279824500D2021CD2B299
S21400695005920133DBB21A00BB42A5DB009B55460D
S2140069609A460F9B01359946109B4C4499460E9BC0
S214006970EDB24944A9469D428ADB029D6646002D3B
S21400698025D05B461B68DB4C18042900A0475B46F5
S214006990186043461B6829001804A0474346186041
S2140069A05B465B6829001804A0475B465860434670
S2140069B05B6829001804A04743465860039B049A66
S2140069C09E1B1E9B1E60059B9F1A1E9B5F602800D9
S2140069D015B03CBC90469946A246AB46F0BD644610
S2140069E0801B02B20A9290B2069A9A18D27852B2D5
S2140069F0002C00D095E6524292B214B20B9494E664
S214006A006446821B06980B921818C07892B240B261
S214006A10002C00D06DE6404280B204B20A9484E6B0
S214006A200025D4E7002C21D002983C1AA0B2844658
S214006A300C944C461F19FF78099C7FB2002C10D08E
S214006A4005983C1A0D94A7B296E66046404280B27E
S214006A50844600B20C908FE67F42BFB23CB20D94E3
S214006A607AE67F42BFB238B20D9085E67F42B8B272
S214006A70844600B20C90DCE7022A3BD0012A6DD097
S214006A80032A00D192E0042A49D0052A00D1C9E0A1
S214006A90072A00D1EDE0062A00D114E100230021E8
S214006AA010931393CEE6022A14D0012A6DD0032A3F
S214006AB000D194E0042A43D0052A00D1A2E0072A98
S214006AC000D1C3E0062A00D1ECE0002200260F9297
S214006AD00092A1E6049C069A013C241A7443039D86
S214006AE0991862194C68A2180092EA1B921B0F9222
S214006AF0012691E6059A0899029D411A013A521A12
S214006B006A430399099C4B445B68091B5118591842
S214006B10039BDB1B5B1B10930123139392E64B44F2
S214006B201A00039C099B029DE31A6B430899411ABD
S214006B305B185168C918E31B6B430133109381E659
S214006B40069A039D99182A0072434C681218A218D8
S214006B500092EA1B724301320F925DE6029C4B44A0
S214006B60A4461A00089B039DC31A6343099963440D
S214006B70691A013B5B1A5168C9187B1B9C44634623
S214006B80109301235B4213935CE604007443069A59
S214006B90A419039D9918013C621B4C68A218009228
S214006BA07A1B921901260F92764235E64B441D0059
S214006BB0089A059B821A013B9B1A029A039C9446EC
S214006BC0534309996344611A013B5B1A6968C91803
S214006BD0BB1A1B1B109301235B42139332E6049CE3
S214006BE0069A013C241A7443039DA4199918013C83
S214006BF0621B4C68BE1BA2180092721B01260F92E5
S214006C00764209E6039D069A2C007443A419991847
S214006C10013C221A4C68A2180092EA1B7243013A01
S214006C200F92F9E5029C4B44A4461A00039D099B6B
S214006C300899EB1A63436344411A013B5B1A516897
S214006C40C918EB1B6343013B1093FBE5049C039DB3
S214006C50013C641B7443069AA4199918013C221A35
S214006C604C68A21800927A1B7243013A0F92764241
S214006C70D2E54B441D00039C059B099A013BA21AD2
S214006C809B1A029A0899944653436344411A013B5F
S214006C905B1A6968C9183B1B5343013B1093534268
S214006CA01393CFE5049C039D013C641B7443069A32
S214006CB0991822184C68A21800927A1B7243013267
S214006CC00F927642A8E54B441D00039C059B099A4B
S214006CD0013BA21A9B1A029A08995343411A5B1861
S214006CE06968C9183B1B53430133109353421393EF
S214006CF0A8E5C04679F20000F0B5DE4657464E4697
S214006D004546E0B59B4689B0824200DC92E001230E
S214006D109C46161A5B468B4500DC86E0CC1A01239F
S214006D209846484F331905933D8E03957B8E6D002C
S214006D305B0002933A23FB5C01969A463B680493F9
S214006D407B6807935346002B44D0059BA94226D266
S214006D50029F874223D98EB2039F059676087E430C
S214006D6087B2B1467E08B246D1444E467600B1465A
S214006D704F46049EBE5B87B2B14601263740069753
S214006D80059F37404E46B600B1467E00B246069E88
S214006D90D1444E447700079EBF5B002F4FD19042F0
S214006DA00CD05F00A74204DB019E1B196044B7426B
S214006DB0CCDC019E4144B1464B44C7E75945F0D16F
S214006DC000239A46504609B03CBC90469946A246D7
S214006DD0AB46F0BD059BA9420FD2029F87420CD955
S214006DE0039E0F043F0C77430604360CB146049E00
S214006DF04F447F00BF5B002F21D190420AD05F0036
S214006E00A7420CDA019E4144B1464B44A942E4D362
S214006E109042F4D18B45D5D05F00A742F2DB019EAD
S214006E201B196044B742D6DCECE75C1A01235B42D0
S214006E30984676E701235B42861A9C466AE701235A
S214006E409A46BFE72C120020F0B557464E464546F8
S214006E50DE4663236522E0B5C35C82565B00D20F34
S214006E609B1860229B49DB00825C8346C8184068FA
S214006E705B58845C9B5C0122224094465A46122151
S214006E80515E5A460227944EDB00F5181620105E17
S214006E906A7882469146AA78F05CC7B052B227401C
S214006EA01D909046620750D542465242389262463E
S214006EB0002A02D04246121A3892F218D27852B2FB
S214006EC0944652423792002F01D000F050FC379A79
S214006ED09446389A614494465246624492B28DB2C1
S214006EE011B22B912900121849442FB212B20DB2DA
S214006EF02B992692FA101592CA100C923A004A4420
S214006F00013AD21006920A18013A1B972395D2101E
S214006F10012C01D100F059FC032C01D100F064FCD7
S214006F20042C01D100F08DFC052C01D100F091FC61
S214006F30072C01D100F077FC062C01D100F094FC60
S214006F4000231D931A9321933AE042465242379209
S214006F506246002A02D04246121A3792F218D278B7
S214006F6052B2944652423892002F01D000F0F9FBFC
S214006F70379A9446389A614494465246624492B28E
S214006F8015B289B24A440FB212B22692FA1015927E
S214006F90EA100C923A18013AD21006922A00091802
S214006FA04A4409B2013A1B972B952391D210002C24
S214006FB001D000F027FCF3185B68219301231A9395
S214006FC00C9B934201DD00F00DFC082084462B99B3
S214006FD0DB00591A8C4460461190269808331B1A19
S214006FE01D981493C300299303004B431393531C1B
S214006FF0289307231A9A5843D3000793159B1B9987
S214007000DB005B1A1100449307335943D300D31AAD
S2140070103A930023DA462E903B9135933493369379
S21400702033933093329331932F93159B069A934262
S21400703000DD7DE10C981D9F83B25A080D92012257
S2140070401100C40011981940083849000E91C14338
S214007050C91719900840591E89B201339BB24D08D2
S2140070601E91114049001A4020912293590853005E
S21400707025932E9A0723944617941C43139B189027
S21400708063442C93159B1F9524911C944743002B17
S21400709001DC00F0F6FB9946179B104C083327934B
S2140070A04B461B9ADD00AB1A1A9907334B432199BE
S2140070B0AD1A8B46199ADB199B440823002A00DA7E
S2140070C0119B149A4E469B1A2A930C9B1B041B0C6E
S2140070D00F932DE070E403009C4E03002C1200205A
S2140070E04B465F080D9B5343DB1967465B00DB5B33
S2140070F04A46012717400E9A9B0090464344DB19E8
S21400710062685B009B5A771C9B049B0CCB56012B3A
S21400711027D0022B00D1D2E108239846A844079B2B
S21400712045469C46069BE3443E00BB4200DAFFE031
S214007130B3B299463A23228EE05C2368216A9C46C5
S21400714001920028CCD10F9B3704534362463F0C74
S214007150DB195B009B5A771C9B049B0CCB56012BC0
S214007160D7D1FA001692083A1292EA43D2172A406A
S2140071701092082290460C9AA844002A24DD002883
S21400718000D1F9E11F9A0198504302004846400892
S214007190121860465200125A484603402098920041
S2140071A084466244D31862685B009B5A9B049B0C1F
S2140071B0CB56012B00D1EEE1082398462B9A179B5D
S2140071C0A844934200DB1FE2D94B98470C9B01383A
S2140071D083422CDA3A22238E216A0193A25C20682D
S2140071E0002A00D1AEE14B465B089C46249A019BE0
S2140071F05A4362445200135A2D9301239C464B4631
S2140072006246134099462D9B9A00259B9C466244F5
S2140072104A4463685200D25A9204920C8A56012A53
S21400722000D15FE21C9B269A934200DA20E23A20C5
S2140072302368BDB2205CAA1E9946216A92B2238EAC
S214007240002800D191E10D984343500884464846F3
S21400725063445B00185A0123134082000E9884464C
S2140072606244D21863685200D35A9B049B0CCB56D8
S214007270012B04D0129B1B9A934200DB95E1AD4B89
S21400728098470138B04200DC49E73A20205C226A81
S2140072902168238E002800D181E10D9843436808B9
S2140072A01B185B005B5A012129409D000E9B9C46E3
S2140072B065446D1863686D00EB5A9B049B0CD356AF
S2140072C0012B00D12BE70723129A1A431300239AA7
S2140072D09A4200DC23E7199B5A46002B00DA24E288
S2140072E0269B279908258B4200DA30E200230020EF
S2140072F0A4461D9E35991478002C04D0189C0130A5
S214007300A1464944C918013392199D42F3DC6446EC
S214007310359180B2309B45469C46604403B230931C
S214007320079B3E009C46069BE344BB4200DBFFE611
S2140073302999119A8C4608321192149A0C9B08329D
S2140073401492139A013362441392289A0C93934230
S21400735000D06AE6309AD346002A25D080215346CC
S21400736049028C4651461B69389863440B61359B2D
S21400737050439C4660440C686F4B4D6A00041100F5
S2140073809847E317C11722006C4EB0470904000C5B
S2140073900843002C00DA08E203071B1A9B001B1A9E
S2140073A09B005D1953465D62309C329A2F9B1443B6
S2140073B01C43319B1C4324B2631E9C41E4B2002A4A
S2140073C024D05F495B468C4659461B69389863440F
S2140073D00B61349B50439C4660440D68564B4E6A86
S2140073E0000411009847EB17C1172A00534FB847FF
S2140073F00904000C0843002D00DCCDE183001818BA
S2140074005B46800086196D425E621D60319A002AD6
S21400741023D080215B4649028C4659465B693798E3
S21400742063444B61369B50439C4660444D68424BD8
S2140074304E6A000411009847EB17C1172A003F4F09
S214007440B8470904000C0843002D00DA95E18300D4
S21400745018185B46800086195E622F9A002A26D08E
S21400746037495B468C4659465B69379863444B619F
S214007470339B50439C4660444D682F4B4E6A000435
S21400748011009847EB17C1172A002C4FB84709047C
S214007490000C0843002D00DC90E103071B1A9B003C
S2140074A01B1A9B009E195B466D425E625D60200063
S2140074B047B03CBC90469946A246AB46F0BD534604
S2140074C01B68089353461B68DB17099308980999AD
S2140074D01B02020E1343039303020293029A039BBA
S2140074E0121A8B411902100E160208430304320CBE
S2140074F01A4353461A605B680A9353465B68DB1769
S2140075000B930A980B991B02020E13430593030272
S2140075100493049A059B121A8B41100E1902160248
S21400752008430304320C1A4353465A60F4E5C04637
S2140075308DD000006DD0000079F20000D5F4000078
S2140075400000FFFF3204130C9C46229A019B5A430C
S21400755062445200125A9204920C8A56012A00D0B3
S21400756060E68146BDB2AA1E92B20F9843439A18AF
S2140075704B465200D35A78E61E9B019A5A43330470
S2140075801B0CD21863465200D35A9B049B0CCB5656
S214007590012B00D010E607339846A84414E60F984F
S2140075A043435D196D006B5A87E63A9B5B441A00AD
S2140075B0199B002B00DA9BE0269B27998B4200DA6A
S2140075C09CE008239C460020A146002364460196C2
S2140075D010951D9E050034981178002904D018993E
S2140075E001358C466044C01801339219A342F3DB80
S2140075F0349028004C46019E109D80B2329B9C46DB
S214007600604403B232933AE61A9A109B5343139A95
S2140076109446219A634494466344002D76DB169A7A
S21400762023998A4200DD8AE0082294460020210041
S21400763000220400604601962D95339E1A9D3991CE
S2140076401978002904D0109901348C466644B6187F
S21400765001325B198242F3DB200033962D9D019E9A
S214007660399C80B22F9B9C46604403B22F93ABE5B7
S2140076701A9B109A5A432C9B9C46219B62449C461C
S2140076806244002D23DB169B239908258B4223DCBE
S2140076900020019600232E00A146369904001A9871
S2140076A01578002D04D0109D0134AC466144C918ED
S2140076B001331218B342F3DB20004C46019E36918C
S2140076C080B2319B9C46604403B23193AFE5169B73
S2140076D0239945468B4201DD5B1AED1A002DD7DC57
S2140076E00020EEE7BDB2AA1E92B28146019BAAE533
S2140076F0119B27999C46269B8B4201DA2A9B9C4627
S2140077006346002B00DD5EE7002077E7169A239994
S214007710C4468A4204DD169A521A61468A1A94466C
S2140077206246002A82DC00209CE7269B27992A9D39
S2140077308B4211DA002D00DDD8E50020EAE50822AC
S2140077409446169A521A61468A1A9446E8E72A9D83
S214007750002D00DDCAE5F0E7119D002D00DDC5E532
S214007760EBE762464D46521B3892FFF701FC624635
S2140077704D46521B3792FFF7AAFB03071B1A9B00C6
S214007780181A5B4680002F9A86196D425E625D600D
S214007790002A00D064E68AE603071B1A9B00181A24
S2140077A05B46800086195E6230E683001B189B00ED
S2140077B05D19534664425D621C60F5E583001B1844
S2140077C09B009E195B465E6271E6F3185B680138A3
S2140077D01B18219301235B421A930C9B934201DCF6
S2140077E0FFF7F3FB002462E64D464543F3185B685B
S2140077F0013D5B19219343421D9301235B421A937B
S214007800FFF7DEFB022C01D0FFF782FB4D46013D61
S2140078104543F3185B685B19219343421D9301238C
S2140078201A93FFF7CDFB4D464543F3185B68013DC1
S2140078305B19219343421A9301235B421D93FFF782
S214007840BFFBF3185B681A90219301231D93FFF783
S214007850B7FBF3185B68411E5B18219301235B425C
S2140078601A901D93FFF7ACFB4D46013D4543F318B8
S2140078705B685B19219343421A9301231D93FFF71C
S2140078809FFB069B1293002B01DD00231293219A87
S2140078903B9B9446FB1863441093179B199A083336
S2140078A027930823002A48DB149AC54C9B1A2A9370
S2140078B0449B9846159B45469B466B46B8461B8E92
S2140078C02D93236A206816935B469EB23A230F9642
S2140078D0E35C45931A00238E002A30D00D99720877
S2140078E059435218012131400E9E5200B446125A96
S2140078F092006244521861685200525A92041699D5
S214007900920C895601225A44914601291FD0022919
S21400791000D1CDE008352F00079A109B94466344AB
S2140079201093129B3D00CB464B45CADA069B474652
S2140079304B4501DBFFF7B4FBFAE4119BB4E75A466C
S21400794091B22D9A5A4352185200125AD6E7D600D0
S214007950082252429446B44462463992EA432F00C3
S214007960D2172A4001920C9A0837002A22DD459A3F
S214007970002A00D1D4E00F9F7A0845921F9A39401A
S2140079805343459AD318209A5B0094461B5A626864
S2140079909B0063445B185B009B5A2F009B04169A5F
S2140079A09B0CD3560837012B04D0179B2B9A934277
S2140079B000DBC5E0834B98470C9B0138984225DDD9
S2140079C0236A216816933A23E35C208E002B00D1AD
S2140079D0AEE0249A0F9B50435B081B18259A5B0069
S2140079E05B5A944601210F989B00014063445B1844
S2140079F062685B009B5A9B04169A9B0CD356012B1D
S214007A0004D01C9B269A934200DADFE06E4B984720
S214007A100138584500DC7FE73A254B46655D98B24D
S214007A20226A2168238E002D00D1B6E00D9E4508FF
S214007A307343EB185B005B5A012108400E999B00CC
S214007A408C4663441B1861685B005B5A9B049B0C66
S214007A50D356012B00D15FE70723399A1A43130048
S214007A60239A934200DB57E7199B1098002B00DA05
S214007A70DEE0269B279A934200DADEE00822002109
S214007A800B000578002D06D0189E359DB44665443B
S214007A906D18013335951D9D0131AC466044914209
S214007AA0EFDB9BB2309A944663441BB2309333E7C5
S214007AB053461B68409353461B68DB174193409818
S214007AC041991B02020E13433D9303023C933C9ADA
S214007AD03D9B121A8B411902100E1602084303042E
S214007AE0320C1A4353461A605B68429353465B68EF
S214007AF0DB174393429843991B02020E13433F93AE
S214007B0003023E933E9A3F9B121A8B41100E1902B7
S214007B10160208430304320C1A4353465A60F9E629
S214007B201E9A53435A4692B29B185B001B5A34E780
S214007B305B46229A9BB250431B185B005B5A5AE77F
S214007B401A9B019A5A43139B9C46219B62449C466F
S214007B506244002D29DB239B08219E4229DC00205D
S214007B600300169145941178002907D03399013304
S214007B700C0001998C466444211833911A990130FF
S214007B808C46169962448842EDDB459C9BB22F9A40
S214007B90944663441BB22F930CE72D984343484604
S214007BA080B21B185B005B5A50E7239B39009E424D
S214007BB002DD239BF31AC91A0029D0DC0023E6E76E
S214007BC02C1200208DD000006DD000001A9A019B68
S214007BD053432C9A9446219A6344D218002D1CDBFA
S214007BE0239B08219E421CDC002003001578002DF4
S214007BF006D0019E369DB44665442D180133369551
S214007C001A9D0130AC4662448842EFDB9BB2319A43
S214007C10944663441BB23193F8E6239B39009E4298
S214007C2002DD239BF61A891B0029DDDC0023EEE724
S214007C30269B2799119A8B4200DA2A9A002A00DDA1
S214007C401DE700232EE7C04670B53A4B0400984760
S214007C506423E35C0500082B15D8374A9B00D358ED
S214007C609F46FF23182207210020344EB0472300EA
S214007C700222303325876421DA72002262540439E6
S214007C80615C1A739972236923636369636370BDC9
S214007C90236800225B00236063685B0063606423E4
S214007CA0E254F4E700236422A3543034237385336C
S214007CB0E3724B3A7A3305210220204CA047E6E7D0
S214007CC058232087E0522300012206213033DA723F
S214007CD06332A15400221A732369236363696363C2
S214007CE0D5E73B2303222087E25400236132A354C6
S214007CF02200303213732369236363696363C6E724
S214007D00FF231822072100200C4EB0472300022232
S214007D10002030332587DA726232A054043AA15C20
S214007D20413A10310A409A721873236923636369D3
S214007D306363ACE7F98C0000BCF900002DDF00009F
S214007D40F0B5DE4657464E464546E0B5A7B01E900F
S214007D501D91002900DCAEE28446612100236144C7
S214007D601F901B931C93024F8B46644617E2C04637
S214007D70D5F400005B461878012308210340984696
S214007D800140230022000833103260CA60C3E36952
S214007D90A3615B465B78002B02D05A46013B5370CA
S214007DA0002900D148E25B469A7893009B18E94A7E
S214007DB094465A466344527B5B789B18DBB29B0022
S214007DC063445A699B6B10921C936568236822680B
S214007DD0D917EB17994610000B00B8470904060C94
S214007DE02A000E434B4628004946B8470904000CB3
S214007DF008433618D84B30009847434605002062A3
S214007E00002B05D0109A944693109C44634610931A
S214007E10D24B9D4208DC1098EB17C1172A00B847D2
S214007E200904000C014310915B465A461B78927871
S214007E3012931192990700D5F8E15B0700D41FE270
S214007E4094469300C34A18936344D35C5A46127B05
S214007E509B18C04ADBB294465C225B0063449B5E80
S214007E609946119A189B9446BA4A634494465A46D1
S214007E706344927B9B789B18DBB29B006344196F2C
S214007E800123129A1340199300D0DAE1B44B300064
S214007E9098470123181A4B4643439946DB179A46E0
S214007EA0B04B9D4200DCD3E1236898466368039399
S214007EB0E2691C9B94461D00F8266544B600AB0D8F
S214007EC0A94933405B00C85E139253464A46C11721
S214007ED0B8474904C00B08438044414621608021CE
S214007EE0C9058C466544AD0D9F4935406D00485F19
S214007EF04A465346C117B847139A4904C00B08436D
S214007F000399930D091A334097485B00C55A4346B8
S214007F10DB171693CB17179380239446DB05634431
S214007F209B0D1E40904A7600925F6D422DB29146A0
S214007F30E817D217030061601491039215902A0087
S214007F4040461699B8474904C60B039B4A46149800
S214007F500E431799B8474904C00B08433618F21762
S214007F6092461599320053462800B84749040B003C
S214007F703200C00B039E03431A9348465346310013
S214007F80B84749040B00B246C00B0343159353464B
S214007F904A46039340461699B847C20B13006D42F3
S214007FA04904EE170B432A0014989A461799330093
S214007FB0B8474904C00B0843824453465246DB1771
S214007FC0280031009846B8474B04C60B1E43CB1317
S214007FD052461493484643460399B8474904C50B8E
S214007FE00D431199EA178C469146189A624413007D
S214007FF0584A94465A466344127C1B799B185B4A3F
S214008000DBB294469B0063445869C11702000B001C
S214008010B8470B04020C1A4392460A1403924B46C6
S2140080202A0028004946B847000C020009040A4303
S214008030149990460B0032003000B8470904000C33
S2140080400843039A4044C3179A4200DDD0E002D1A9
S214008050824500D9CCE0464A002349462800B84766
S2140080604904C30B0B4330009946414A0023149938
S214008070B847199B4904C60B0E43002B0AD05B4633
S2140080809B79002B06D11B9B002B00D104E35B469B
S21400809001229A711098374A0023C117B847636ABD
S2140080A049049C46C00B084360440023C117324A6B
S2140080B0B8474D464904C00B139B0843C31860627B
S2140080C0E3612E4B9C462E4B6044984201D8002319
S2140080D06362159B1A98DB179A46199BC117002BEB
S2140080E069D05B469A7893009B181A4A9446702289
S2140080F06344A25CDB789B181C4ADBB294465B00A8
S214008100634438229B5E9846DB1799464246B8473A
S2140081104904C00B08432D18256042464B46159867
S2140081205146B847236960229C46636965449C466D
S2140081304904C00BE369084330186060DB0E6044F6
S21400814025616061A3542023129A134000D083E077
S21400815018E0C046E0F90000F1880000FFFF0000CC
S21400816079F20000FF07000030E9020060FA000024
S21400817030750000606D000018790000FFCF000029
S214008180FE9F01005A461370742294461B9B1D9A4C
S21400819001331B937434E3449A4200D192E05B4669
S2140081A01B79002B00D1E5E500235A460021137009
S2140081B098460020E5E5129B5B0752D55B469A7809
S2140081C093009B18DF4A94465A466344927B9B78FA
S2140081D09B18DD4ADBB294464C225B0063449B5EF0
S2140081E01A9A9846DB17994640460B0049468EE792
S2140081F0626A109B944663441800D917D34A00233A
S214008200B847139B4904C00B08431B18E3615B4641
S21400821060629B79002B03D01B9B002B00D12FE2C2
S21400822000235A460025937100264AE7C84B994614
S214008230119B9B00189314E6C30627D400231093C3
S214008240C3E5002399469A46C24B9D4200DD2BE6C5
S2140082500023039398462BE6BF4B20009847002345
S21400826090E7FA220023D201B847FA23DB019846AA
S21400827000234904C00B08432D18256099464CE797
S21400828000239946119B9B001893EAE55B469A7873
S21400829093009B18AB4A94465A466344527B5B78DD
S2140082A09B18DBB29B0063445A699B6B52425B424D
S2140082B010921C9389E527B03CBC90469946A2468E
S2140082C0AB46F0BD5A211E9A8C4613001D99634496
S2140082D09B464B1E1993742392464B439A440023A5
S2140082E011931F9B98469D4B404698474646119BC8
S2140082F0002800D1F5E0002B00D11BE100235A46F0
S21400830013806822B35C0133DBB20F2B00D92BE15C
S214008310B354199B119A9342CDD074239C4624AB38
S21400832010938F4BE044444699460396109B20AA30
S2140083300093210022AB0398C847002800D1BEE076
S2140083405B461B7A002B00D0B9E06233E35C002B5F
S21400835000D0B4E0119B002B00D1E4E00398236822
S214008360016862685D1A169343681592D31A209ABC
S214008370D8171292D11713931A0017900300129869
S214008380B847020C10000B04091405912199EE174A
S214008390184314912A0033000490129514981896E6
S2140083A0C917B8470B04000C184309140690079128
S2140083B0069D079E0499059A491BB24113000A00C0
S2140083C0D802490D0843D1020990089108980999E6
S2140083D0801A9941039D0A00696A53048C46C20BB1
S2140083E022991A43120262441491179B14986A62E7
S2140083F0C917139AB8470B0409140B912399000C5C
S21400840018431491129A189B0A90C9171498B847E3
S2140084100B04020C1A430B140C920D930C980D9936
S2140084200A9A0B9B121A8B41510DD8020843D102AF
S2140084300F900E910E980F99801A99410A005304D6
S214008440C20B1A43636A12029C46109B6244596828
S2140084506262CB0F5B185B10D9436A6960690133AF
S21400846009041B04824255DDD3186B6163699C4680
S21400847061446161109B2A6919682069CB0F5B18FB
S2140084805B10D943013309041B04824239DDD3183B
S2140084902B6123692A009C4661442161169B136068
S2140084A0159B53602368129A9B1A2360139A63687D
S2140084B09B1A63605A46012313726222A3547434D3
S2140084C0A24500D032E7119B404601331193742336
S2140084D09C46224BE34498474646119B002800D012
S2140084E009E7002B00D114E75B465A461B88013388
S2140084F09BB21380722B00D80BE768234246D054F9
S21400850007E7521803990A61226994466344236177
S2140085100A00C3E7521803994A6162690D0094463F
S21400852063446361A6E7FF332222062102200D4D35
S214008530A84713E7FF33202206210220094CA04754
S214008540E7E6C046E0F9000060FA0000786900003F
S21400855000F0FFFFFF070000497C0000496E0000A6
S214008560216600002DDF0000414600238B5439238E
S2140085705A46D3736A4B984743461969C5170B1476
S214008580039343465C69AD0F2314994603234019B1
S21400859003405D1BFF232B40012B00D195E053DDEC
S2140085A0022B00D187E0032B00D0B2E65D4AD369E8
S2140085B01293002B00D1ACE6CB17039907208C460C
S2140085C00340E41720406344DB1048441593C3106F
S2140085D0169343469B6A9469109301235B42139358
S2140085E04B46B146149305E02300129A1C33A24270
S2140085F028D01C00109B9C42F6D022686168149B11
S2140086000398CB1A151A5B436D43ED18139B9D42D6
S214008610EAD207200600CB170340D01730405B187D
S2140086208218DB10D210169915983F4EB0470028D6
S214008630DAD143469C622300129A109413951C3399
S214008640A242D6D14E4664E6002B00D061E6354BFA
S214008650D969002900D15CE642469B69926A58694E
S214008660904207D109E0994200D152E61C3358697E
S214008670824202D098698242F5D14246936248E629
S21400868000202A4B012198475B4601221B78606A2E
S2140086901A4012931992C3E5FF33192208210020CD
S2140086A0234DA847E369012213935B461B781A40C3
S2140086B012931992EBE41A4B9847C3072AD4434601
S2140086C042469B6A5B69936223E6164BDC69002C84
S2140086D000D11EE643460125986A124BB4469A69B5
S2140086E06D42039E00E01A0082420DD04946536850
S2140086F0591A136849439B1B5B435918A94203D276
S214008700434610000D009A6213001C339442EAD1CF
S2140087106646FEE5434642469B6A9B699362F8E5D9
S21400872089DF00002C120020F96C00000DDF00002D
S2140087302DDF0000FEE7C04625492648F8B58142F1
S21400874009D0254A904206D2013A121A92080132FE
S2140087509200224B98472248224A904207D2013A7A
S214008760121A92080132920000211F4B9847FF22EE
S2140087701E4B022193431E4A032593609023022436
S2140087800C2708261B4A5B00D1501B4AD378AB4304
S2140087902343D370D378BB433343D3703022174B75
S2140087A0987B9043202210439873997BB9433143BA
S2140087B0997380219A7BAA4322439A73104A53687E
S2140087C00B4353600F4B98470F4B9847FEE7C04646
S2140087D09CEE030010000020800B00208DF70000A8
S2140087E0800B0020C87500209FF700000060000086
S2140087F000ED00E0007000410050004100480041DC
S2140088000040004145F70000C1AC000010B5031E53
S21400881004D18020C00500293CDD10BD002905D10B
S2140088200020002BF9DC80200006F6E7C8170A189F
S2140088304240934219DADC171819604081422CDC5A
S21400884082423ADC21D008021900274B98470130B3
S214008850FF30C30F1B185B10244A5B00985E802312
S2140088601B069C4680036044D7E7934235D0080237
S21400887019001D4B9847431CFF33D80FC0184010F3
S2140088801A4B4000C05E8003C7E7002928DDC020E1
S214008890C005C2E7C0200006BFE71802124B984783
S2140088A00130FF30C30F1B1880205B100F4A5B009F
S2140088B09B5EC0059B03C01AAFE718020A4B984799
S2140088C00130FF30C30F1B18C0205B10074A5B0047
S2140088D09B5E00069B03C01A9FE7802080059CE7EE
S2140088E0A020000699E7C04679F20000BCF7000019
S2140088F010B5041E0DD0084B9847192301221B1AE9
S2140089009343DC40054A6400A05A5B10984000116F
S21400891010BD0020FCE7C04651F4000014390300E7
S214008920F8B5CE4647461C4D80B540221B4B070087
S2140089300E002800002198472B041A0C1A431849E9
S214008940184B591804C38B42FCD1174BBC019946EF
S214008950164B4022E418164B210048469846984786
S214008960144BA28D1F709C2313492800CA529201F3
S2140089706169C047012200210020104B9847002E55
S21400898003D10CBC90469946F8BD4B46D98D186964
S2140089900B4B9847F5E7C046C82300209FF700001A
S2140089A088080000401B00202C120020A097010021
S2140089B08DF70000A00B0020201A0020ADD000008C
S2140089C0E5C70000F0B55746DE464E464546E0B5DC
S2140089D04178C3788A4683B09A44047800918278B6
S2140089E00B0051453DDA5421594310191A00524BD9
S2140089F09446C918514B471E9B463F2399468442CE
S214008A0029DA5346013B634535D0009B2200634577
S214008A1050D0A0256D00C523A8466546474E9B014D
S214008A2001955500F31801324B53904211D09442F1
S214008A301ED0BB1A5D426B4145465B422B40C125AA
S214008A40AD01AC4663445500F31801324B539042D7
S214008A50EDD1019B9C4601239846C4445431D4452D
S214008A60CDD103B03CBC90469946A246AB46F0BD7D
S214008A70C5239B01D5E7009B220063453AD0C72358
S214008A809B0155005B4401324B539042E3D0944225
S214008A90F5D0BB1A5D1EAB414D465B42AB43C925C4
S214008AA0AD01A846434455005B4401324B53904207
S214008AB0EDD1D0E7C223214E9B015500F3180132B9
S214008AC04B539042C7D0944211D0BB1A5D1EAB41A7
S214008AD04D465B42AB43C425AD01A8464344550012
S214008AE0F31801324B539042B5D09442EDD1C223D5
S214008AF09B01E2E7C223114E9B01B046550043445A
S214008B0001324B539042A6D0944212D0BB1A5D421B
S214008B106B4140255B422B40C325AD01A84643442C
S214008B20B0465500434401324B53904293D0944292
S214008B30ECD1C2239B01E0E7401B0020C8230020A5
S214008B40F0B5DE46574645464E46E0B585B002903F
S214008B50634B00208A4601929847624B62491B0489
S214008B601A0C1A43614B9B461D00594404C3994294
S214008B70FCD1C2235E4F9B019946C033FE18C0331A
S214008B809C46403B984600240020B944BC44B84468
S214008B900123002800D103239BB2C0339B01FB189E
S214008BA09BB2182800D171E029000022002805D1C8
S214008BB085E0272A06D00B8001320231002AF8D140
S214008BC00E80F9E7C6239B01220059462732520041
S214008BD0FB1801308B522A3454351928D8D100237B
S214008BE09946019BD046002B43D043461E681B790E
S214008BF0029A9A4643465C79DB7901259B1A5A42CB
S214008C00534142469279134360221D406D421540FF
S214008C105E3A1A4234D0374B300098475346181AFB
S214008C2040B2C143C9170140C9B2292818DC3378BD
S214008C30002B15D02A225443641864005C4432008A
S214008C4003E013780234002B0AD05B19203B9B010B
S214008C50FB1801322380931BCB18DBB2292BF0D9EB
S214008C6001239C460733E1449C46019BE0444B4568
S214008C70BBDC05B03CBC90469946A246AB46F0BD70
S214008C8004221A4213D1534658B2CAE72A000023D8
S214008C9005E0272B08D06146118001330232002BF5
S214008CA0F7D141461180F8E7C9239B018CE7114BA9
S214008CB03000984753464008181A40B2B1E7039070
S214008CC004E0272A07D00B8001320231002AF8D1AF
S214008CD048460880F8E7C42303989B0174E7C0461B
S214008CE0F5E70000C853002088080000401B00205D
S214008CF0C8230020AFF70000014B18887047C04615
S214008D009C0B0020AC4B10B5C31800D5CFE0AB4B86
S214008D10C31800D5CDE0AA4BC31800D5DEE0A94B9A
S214008D20C31800D5EBE0A84BC31800D5FFE0A74B4F
S214008D30C31800D514E1A64BC3180720013AD2B2D7
S214008D4010180870A348181800D5ACE0FA204001A7
S214008D50181800D5AFE0A048181800D5C0E09F4806
S214008D60181800D5D1E09E48181800D5E1E0FA2082
S214008D700001181800D5E4E09A48181800D5F4E069
S214008D80FA20C000181800D5A4E0FA24A4000A208F
S214008D901C1900D50BE180184870E12080001818D7
S214008DA000D57CE0C8208000181800D587E0AF20EA
S214008DB08000181800D597E096208000181800D577
S214008DC0A7E0FA204000181800D5B6E0C8204000FA
S214008DD0181800D5BDE096204000181800D5C8E049
S214008DE01800C830844600D5CFE01C000A20643442
S214008DF0A44600D5D0E08018887018005A30844603
S214008E0049D418005030844660D418004630844652
S214008E1000D570E018003C30844600D571E018009C
S214008E203230844600D57EE018002830844600D5CF
S214008E308BE018001E30844600D59EE018001430E3
S214008E40844600D59DE01C000A200A34A44600D5BE
S214008E50A6E08018C87018000A3019D0180009302B
S214008E6031D01800083043D0D81D56D0981D57D0A2
S214008E70581D00D171E0181D00D173E0D81C00D138
S214008E8087E00A20023300D18EE082180A7110BDF6
S214008E900120C0B2F9E701206346C0B2D9E703005B
S214008EA00120C0B2A7E703000120C0B273E701208B
S214008EB044E7022042E703000220C0B26BE703004B
S214008EC00220C0B297E70220C0B2DEE70220634667
S214008ED0C0B2BEE703000820C0B25CE703202DE75F
S214008EE003000320C0B256E703000320C0B282E7A7
S214008EF00320C0B2C9E703206346C0B2A9E7042036
S214008F001CE704206346C0B2A3E703000420C0B2F7
S214008F1041E703000420C0B26DE70420C0B2B4E706
S214008F200520C0B2B1E705206346C0B291E7052030
S214008F3004E703000520C0B22DE703000520C0B2F9
S214008F4059E703000620C0B225E706206346C0B2F4
S214008F507FE703000620C0B24DE70620C0B294E7C4
S214008F600620EBE60720C0B28FE703000720C0B25A
S214008F7011E703000720C0B23DE707206346C0B2F2
S214008F8067E708206346C0B263E708206346C0B2BE
S214008F9031E70820C0B278E701386346C0B22AE756
S214008FA001386346C0B254E70138C0B26DE70138F5
S214008FB02300C0B2EFE6C046F0D8FFFFE0B1FFFFE7
S214008FC0D08AFFFFC063FFFFB03CFFFFA015FFFF86
S214008FD090EEFEFF28230000581B000070170000CC
S214008FE088130000B80B0000F0B54E464546DE4636
S214008FF05746E0B54225CB4CCB4E23888046994653
S214009000705B638883B0834200D0C1E04246002A8A
S21400901000D199E0C54A18009246C54F0022514635
S214009020B847735B40256380705B484500D06BE1B2
S2140090300022C049B8474023F35A23806423F55CD6
S214009040BD4BA901C9184022BC4BBD489847802299
S21400905012029446F36C25716344BA4D1C0C96219B
S214009060B94B890020009A469847814682004A44B8
S21400907013019B1ADB00E41A0A212000D047FF22C6
S214009080024093009B185B00E41A4B46824600227F
S21400909098B26946B847AD4B694699466B464A460C
S2140090A0DB78A4B2D3746B461B7913750B23537508
S2140090B053460022D8B2B8476B464A46DB78694624
S2140090C093756B461B792000D3750C23137600220C
S2140090D0B8476B464A461B7953762B799C4F053327
S2140090E09B006C80FC5880231B029C46EB886444E3
S2140090F0240CA34200D170E000239846002C00D038
S21400910074E04346EB803B780A2B58D06A23FC7801
S214009110F35CE41A2B7AE4B2A3420DD0002269462F
S214009120834BA0B298476A46D1782522874B99543C
S2140091306A461179262299542C7203B03CBC90469C
S2140091409946A246AB46F0BD40252379705B9A4609
S214009150484500D0A9E06423F55C554500D197E06A
S214009160754BA901C9184022744B75489847802250
S21400917012029446F36C2571724D63441C0C6B8886
S214009180A34203D14346002B00D1ABE0684F66E70D
S214009190664B00221900664F9A46B847735B402517
S2140091A06380705B484563D14346002B00D03FE7A1
S2140091B023799A466423F55C5545D1D168E0654C21
S2140091C0654B20000C220A21984710232373634B1B
S2140091D0133C2362624B6362AFE74346002B00D129
S2140091E08FE000239846002C00D18AE79621564B44
S2140091F08900200098469847814682004A44130119
S2140092009B1ADB00E41A0A212000C047FF22024016
S21400921093009B185B00E31A98464B46824698B22A
S214009220434B002269469B4698476B46474CDB7883
S2140092300022E3766B461B79694623770B23637718
S2140092405346D8B2D8476B46DB780C22A3776B46DA
S2140092501B796946E3772023E25443469BB20022FB
S21400926018009846D8476B461A792123E25448E7F7
S214009270514600220831B847735B23806423F55CAF
S2140092802379AB4200D06BE74346002B00D0D7E6ED
S214009290802212029446F36C2A4D63441C0C6B88A1
S2140092A09C4200D072E7A4B217E700222149204F63
S2140092B0B847735B23806423F55C5545E8D01E4BA6
S2140092C0A901C91840221D4B1D489847802212024A
S2140092D09446F36C25711B4D63441C0C6B88A342AB
S2140092E000D0BCE62B791A4F05339B006C80FC58E7
S2140092F080231B029C46EB886444240C9C4200D0CE
S214009300FAE6A3B29846FCE6514600220831B84772
S214009310735B23806423F55C2379AB4200D01FE7A0
S2140093208EE6C046100000206C12002007120020B7
S214009330058D00000F120020C01B01008DF70000F5
S214009340840F00209C0B002065F100000412002012
S2140093503C140020171200209FF70000111213146F
S21400936015161718F0B557464E46DE464546E0B584
S21400937093B028220021FD4BFD480EAE98473200E0
S214009380FC4B002513CB13C21B78FB4C1370D02369
S2140093909B009A4601239946F84FA2444B463178E3
S2140093A0FF22029301940095002300204034B84722
S2140093B00136A245F2D14B46F14C0293019400953A
S2140093C00023FF224C210020B847A122ED4B92003B
S2140093D09818995C4278A927120211438278BF0038
S2140093E012040A43C17809061143A2229200981873
S2140093F08946995C427812021143827812040A4325
S214009400C17809061143A322920098188846995CF1
S214009410427812021143827812040A43C178090680
S2140094201143A422920098188C46995C4278120246
S2140094301143827812040A43C17809061143A52213
S214009440920098180D00995C4278120211438278B7
S21400945012040A43C17809061143A6229200059118
S2140094609918985C4A78120210438A78C9781204D0
S214009470024309061143A722920098189E5C0691A3
S2140094804278C17812020906164382780800120450
S2140094903243A8261043A822B600079092009819D7
S2140094A09A5C417809021143827812040A43C17813
S2140094B0D81909060E001643A922417892009A5C34
S2140094C0090211438278089612040A43C178AA203A
S2140094D009060F001743AA22800018184178920048
S2140094E09A5C090211438278099712040A43C178EC
S2140094F0AB2009061143AB22800018180A9192008F
S21400950041789A5C09021143827812040A43C178B2
S214009510090608001043AC22920099189F5C4A780E
S2140095200B9012023A438F783F041743CA7812060C
S2140095301743AD22920099189E5C4A781202324375
S2140095408E7836041643CA7812061643AE22920068
S2140095509918985C4A780C961202024388780004A0
S2140095601043CA7812061043AF22920092469A44DD
S214009570995C52465646527812020A43B17809045C
S2140095801143F278120611437F4AA218A024A400C1
S2140095901C5DA246A024A400A3469B445C465646F7
S2140095A06478240226435C46A478240434435E464A
S2140095B0F67836063443D026B6009451D1244E466B
S2140095C0A400165146460434165166460434165115
S2140095D004341551059D04341551069D0434155167
S2140095E0079D04341551089D04341551099D043413
S2140095F015510A9D043415510B9D043415510C9DCC
S214009600043417510434155104341051DF208000FF
S2140096101150912189005C18585C617898270902DE
S2140096200843A178BF0009040143E0780006084318
S214009630922189005C188046585C617809020843CC
S214009640A17809040143E0780006084393218900C5
S2140096505C188446585C617809020843A1780904BE
S2140096600143E07800060843942189005C18050051
S214009670585C617809020843A17809040143E07840
S21400968000060843952189005C180590585C6178AF
S21400969009020843A17809040143E078000608435C
S2140096A096218900069058185C5C417809020C43A4
S2140096B08178C07809040006214304000C439721F2
S2140096C0890007945C185E5C6178E07809020E43B6
S2140096D0A17800060904314306000E439821DC19E0
S2140096E089000896595C607800020843A17809044E
S2140096F00143E0789924000607000F439921A4004F
S2140097001C1960788900595C00020843A178099703
S21400971009040143E0789A24000608439A21A4002D
S2140097201C190A9089006078595C00020843A178E9
S21400973009040143E078000604000C439B218900DD
S21400974058185F5C41780B940902394387783F04C8
S2140097500F43C17809060F439C21890058185E5CA8
S214009760417809023143867810E0C0469FF7000032
S21400977004120020F4980100C40B0020A5F000009D
S214009780C40F0020C01B010000FCFFFF36040E4380
S214009790C17809060E439D21890058185C5C417803
S2140097A00C9609022143847824040C43C1780906E8
S2140097B00C439E21890089469944585C49464E468A
S2140097C0497809020143B07800040843F178090695
S2140097D008439F218900595C8B469F2189008A4651
S2140097E09A4451465E46497809020E4351468978A6
S2140097F0090431435646F678360631439026B600BD
S2140098009E5D0D91B1469026B600B3469B445E46DB
S21400981076783602B2464E4651460E435946897809
S21400982009040E435946C97809060E43E02189000B
S2140098305650464604315650664604315650ED267C
S214009840B6009451EE2404315550059D0431555010
S214009850069D04315550079D04315550089D04312E
S2140098605550099D043155500A9D043155500B9DA5
S2140098700431555004315750EC27A4001051EF2006
S2140098800C9DBF00D5510D9980001150597918795B
S21400989009020843997909040143D8790006084368
S2140098A0597A8146187A09020843997A09040143CD
S2140098B0D87A00060843597B8046187B090208437D
S2140098C0997B09040143D87B00060843597C8446EB
S2140098D0187C09020843997C09040143D87C0006D9
S2140098E00843597D0500187D09020843997D09043F
S2140098F00143D87D00060843597E0590187E09026C
S2140099000843997E09040143D87E00060843597F20
S2140099100690187F09020843997F09040143D87FFF
S214009920000604000C432021232007945C5C0131D0
S214009930595C185C09020C43222100060600595C9B
S2140099402720090421430E4324215C5C0131595C25
S214009950185C09020C432621595C000609042143C1
S214009960084328215C5C0131595C099009020C43CC
S2140099702B202A21185C595C0006090421430400A8
S2140099800C432C212F200A945C5C0131595C185C36
S21400999009020C432E21000608960600595C0904AD
S2140099A021430E433021585C0131595C0B96090265
S2140099B0084332215E5C36043100014333201E5CCE
S2140099C036060E433421585C0131595C09020843BF
S2140099D036215C5C24042100014337201C5C2406ED
S2140099E00C433821585C0131595C090201433A2086
S2140099F0185C000401433B20185C000608433C2129
S214009A00595C8A463D215746595C090239433E2730
S214009A10DF5D3F0439433F27DF5D3F0639431F784C
S214009A200C91BA465F783F02BB46574659460F43ED
S214009A309978DB7809040F43F0211B063B43890025
S214009A405350F12349469B00D15041460433D15030
S214009A5061460433D1500433D550059D0433D550A8
S214009A60069D0433D550079D0433D550089D043316
S214009A70D550099D0433D5500A9D0433D5500B9D0F
S214009A800433D5500433D6500433D4500C990433E1
S214009A90D0500433D15028220A210B4B0B4898474C
S214009AA00D232421094A01205370013353720133D8
S214009AB0537401335354064B984713B03CBC90463E
S214009AC09946A246AB46F0BD9FF700000412002060
S214009AD0E98F0000F0B5CE464746A42280B52B4B52
S214009AE087B098461800D201294B00219847C0231A
S214009AF05B0143449946454620240027254E0195A0
S214009B002100029700974C23A522002001344035FF
S214009B10B047E4B2A945F2D1202400271E4D21000B
S214009B2001340195029700974C23F7220020E4B2F7
S214009B30B0474035802CF2D1C020902280014044AE
S214009B40164BD20016499847164BD224D6270593B3
S214009B500023A401BF0144444744984605AD43464C
S214009B602A782B2102930194009300204C23403442
S214009B70B0470135BC42F2D19C23D6210A4AD152C5
S214009B8007B00CBC90469946F0BDC046C8230020DE
S214009B909FF70000A5F00000C83B00208DF70000EE
S214009BA070AA010000D778F8201A0020F0B54546C4
S214009BB0DE4657464E469C23E0B5204A83B0D55A2B
S214009BC083011F48C01883689B46C3689A4643694A
S214009BD09946002301930133984646460024019A8D
S214009BE053109F001640FF1876005A46154B28194A
S214009BF09C466310DB195B009B5A42469B00224042
S214009C009B199B1852465B00995A80B280018901C5
S214009C106044494440220C4B013498470A2CE4D156
S214009C20019B0A350133ADB201930A2BD5D103B09F
S214009C303CBC90469946A246AB46F0BD201A002092
S214009C40A0970100C82300208DF70000F0B54E460F
S214009C505746DE464546E0B587B003926B2200269F
S214009C60D64B914605AF029001914EE10024029A30
S214009C7032205218013A147042229C5AA202121B39
S214009C809200121B40241C5B12014443CC4812195C
S214009C9084464C1E64006444248A0198121912B249
S214009CA0D443E417224002800122002493469046C3
S214009CB00020DF229A5C8A46914200D292465146A4
S214009CC0C9B28A46002A00D131E1012502998918D5
S214009CD001390D70B621595A013A8846454689021F
S214009CE0491B8900491BB4255D5B0901A84632253E
S214009CF0AB468C46454659464D43A846B04D614650
S214009D00AC4652006244128A4144891809B2CA43DA
S214009D10D2171140019A51805422FF329A5C111CCE
S214009D20524500D25146C9B28846002A00D103E106
S214009D3002250299891801390D7095214900595A52
S214009D40013A8A4655468902491B8900491B9425D3
S214009D506D005D5B0901AA463225AB468C4655462A
S214009D6059464D43AA46964D6146AC46520062445B
S214009D70128A5144891809B2CA43D2171140019A6F
S214009D809180C822FF329A5C4146904500D2111C51
S214009D90CDB2B54200D2311CCEB2002A00D1C0E00E
S214009DA003250299891801390D70CF214900595AA7
S214009DB0013A884645468902491B8900491BCE253B
S214009DC06D005D5B0901A8463225AA468C464546CD
S214009DD051464D43A8467A4D6146AC465200624411
S214009DE0128A4144891809B2CA43D2171140019A0F
S214009DF0D180002C00D186E03A78944674226146E1
S214009E004A439A186A32127852B29246002A00DC06
S214009E1098E0D1B20A00012C00D198E07A789346F7
S214009E2074225D466A439A186A32127852B2934692
S214009E300A008B4502DD5A46D1B20A00022C20D019
S214009E40BA78934674225D466A439A186A32127844
S214009E5052B293460A008B4502DD5A46D1B20A003A
S214009E60042C0ED1FA78934674225D466A439A18FB
S214009E706A32127852B293460A00594501DA5A46B7
S214009E80D2B2524509D17421884661464546694397
S214009E9001365918F6B26B310E70797888467421FF
S214009EA0454669436A25A8465918884445462D788C
S214009EB06DB2954203D10136F6B26B310E70022CAC
S214009EC021DDB97888467421454669436A25A84647
S214009ED05918884445462D786DB2AA4203D10136FA
S214009EE0F6B26B310E70042C0DD17421FC786143F0
S214009EF059180C006A34247864B2944203D10136AF
S214009F00F6B26B310E7000282DD04A46995C0029B7
S214009F1000D0ABE602223970934690460124012019
S214009F20C7E603220130C0B23A55040064E70122B6
S214009F3040463A555C46EFE602220130C0B23A553A
S214009F4004001EE700220021012C00D066E792459F
S214009F50D9D174226146514301365918F6B26B3195
S214009F600E700028D1D1019A9046039A1070586D51
S214009F70002827D10121494208000022039C627074
S214009F80C8329A58002A03D0824201D2100001211A
S214009F9000249E22039D5200AC709A58002A16D0C8
S214009FA0824214D2D821EC7049005B58002B3AD07C
S214009FB09A4216D8AF391000FF3914E06C12002010
S214009FC0F4980100411C4A4251414942D5E700221B
S214009FD0039CE270B132FF329B58002B14D098429B
S214009FE012D918000321039B104C5A1863784900B5
S214009FF005339B001B59414483420ED00123137046
S21400A0000B880A330B8001E04B1CECD107B03CBC3C
S21400A01090469946A246AB46F0BD022313700B88C5
S21400A02019330B80F2E710000221DCE73C14002015
S21400A030F0B5DE46574645464E46E0B59DB00500AF
S21400A04006AA11A905A8DC4B9847DC4C0B22210078
S21400A05028001831DA4B98475C22DA4B04A99B5A41
S21400A060898ED94F5B18D7498B52743204AB895A04
S21400A070DB8E5B18D3498B52743204AB895A1B8F24
S21400A0805B18D0498B5274328B5A04A9498F5B18DF
S21400A090CC498B52230013AA703323CB23C2CB4B5D
S21400A0A004AA0793CA4B7C34138205AB0093019332
S21400A0B0D2239846C74B02949A46C74B9946019BB3
S21400A0C004AA1E78029B74241D780823D218935D78
S21400A0D0BC4A74439446402293466444A3445A467A
S21400A0E0EB18158809A9ED18BC4BEDB29C46280064
S21400A0F03022E04722005E321300342112884234B8
S21400A100AD1804AA1D8052187300D05A0BA930222D
S21400A110B24DA847208830220DA9B04CA0475A4619
S21400A1200FA91088AD4C3022A0470023212104AA95
S21400A130537652181370083104AA52181370083157
S21400A14004AA5218137004AA0833D3189B5D0B3167
S21400A15052189B00D358B6001693A14B04AA9B59DD
S21400A1609446039317930FAB18930DAB19930BAB51
S21400A1701A93162363441B931CAB9B4616AD07AE7F
S21400A1802C682000B84733784008181A40B2C243FB
S21400A190D2170240D2B2292816DC2378002B13D01F
S21400A1A04146511849005144200003E0037802312B
S21400A1B0002B09D0203B9B014B4401300B80031B36
S21400A1C0D318DBB2292BF1D9043501365D45D7D13A
S21400A1D0019B01330193029B013302932A239C4681
S21400A1E05133E044FF33984500D068E704AB1C7950
S21400A1F074231900734A6143944661440A005C3133
S21400A2000D8804A949795E324B43634419005E31D8
S21400A21012880888824200D20AE10021824200D1D8
S21400A2202EE104AB9879742343436648844663441E
S21400A23018005E300088824200D317E15C331D8828
S21400A2400200022104ABD879742343435D48844658
S21400A250634418005E300088904200D904E100D1C3
S21400A260FDE005AB5B5C04AA1371130004335C5479
S21400A270742319005479534A6143944661440A0092
S21400A2805C310D8804A989795E324B43634419001A
S21400A2905E3112880888824200D3D5E05C331D8880
S21400A2A00200022104ABD879742343434548844610
S21400A2B0634418005E300088904200D9C2E000D1A6
S21400A2C0BBE005AB5B5C04AA5371130004335C541B
S21400A2D0742391791A003B484A438446624410002E
S21400A2E05C32158804AAD2795E30534363441A0060
S21400A2F05E32048810880322A04208D80222A042B8
S21400A30005D15C331A88954292415242023205AB1F
S21400A3109B5C04A88371030004339954314B8383F8
S21400A3201C238377304B994619AB9A46294B9B469C
S21400A330294B9846009B74241D78224B6C439C4600
S21400A340644423005E33188830220DA9234B5C3406
S21400A350984730220FA9214B2088984729210023AF
S21400A36004AA52181370083104AA521813701C4B12
S21400A370AD005B5904AA01931693944626236344C2
S21400A38017930FAB189316AD0BAE2C682000B8478A
S21400A390337840081B1A5BB2D843C0171840C0B2C7
S21400A3A0292B31DC2378002B2ED04A468218520007
S21400A3B05A4421001EE0C0464D9C0000F49801005F
S21400A3C0418B00006C120020AFF70000060C13193A
S21400A3D020250000401B0020C8230020058D00001B
S21400A3E0749901000B140000CA0200000B780232B8
S21400A3F0002B09D0203B9B014344013113800B1BEB
S21400A400C318DBB2292BF1D9043501365545BCD12A
S21400A410009B013300932A239C461D4BE14499453B
S21400A42088D11DB03CBC90469946A246AB46F0BDCE
S21400A4305C331D8802000121F3E65C331B88AB42C7
S21400A44000D83EE703213CE70121824200D029E7FD
S21400A4505C331B889D4200D324E71D0020E75C3355
S21400A4601B88AB4200D8FCE60321FAE6824200D005
S21400A470E8E65C331B88AB4200D8E3E61D00DFE667
S21400A4805C331B889D4200D3CBE61D00D2E7C04656
S21400A49072030000F0B5DE46574645464E46E0B528
S21400A4A0B84FCB00FB188BB01A7D01911969B64BDB
S21400A4B082469847B54B30371B795A42534103338F
S21400A4C0DB00DB190093B24B9B46B24B98465246D4
S21400A4D03B7901259946FB793E689B1A5A425341BF
S21400A4E0BA797C79134360221D406D4215405E3A6E
S21400A4F01A4200D1F2E0A84B300098474B461B1A90
S21400A5005BB2D943C9171940C9B2292B18DC337876
S21400A510002B15D02A225443641864005C44320091
S21400A52003E013780234002B0AD05B19203B9B0112
S21400A530434401322380931BCB18DBB2292BF0D97E
S21400A540009B0837BB42C2D108AC2200934B944E06
S21400A55003CB03C2019B8D4A05339B00D55880234D
S21400A5601B029C46962165442D0C89002800B047A6
S21400A57087B2BB00FB181A019B1ADB00ED18ADB2C0
S21400A58028000A21B047FF26064073039B1B9B004A
S21400A5909B1B5B00ED18ABB2984606AD002B00D0B7
S21400A5A0D7E0804F794B3022D8782900B847EB782F
S21400A5B02200AB702B797C49EB700023754C2B7115
S21400A5C00EA81378002B07D0203B9B011B190132E5
S21400A5D00B8002318242F4D15046434258414342F6
S21400A5E06020184006AB17249C467049694D9A1C9B
S21400A5F064441378002B08D01B18203B9B015B1982
S21400A60001320B800231A242F3D169499C2388B201
S21400A61006040643B446674A674ED55A674AB046AC
S21400A62001242E0015006246183B64424144070090
S21400A630059233E00A2C57D0B201501868801000FB
S21400A64040304018A880100080304018E880100085
S21400A650C03040182881501CFF3040186881100018
S21400A6604130FF304018A88110008130FF3040187C
S21400A670E8811000C130FF3040182882802080001A
S21400A6801018401868829020800084466244521851
S21400A6900A36AA82EF82543501342A335A1D0492B0
S21400A6A09A1D00929A1C0192DA1C02925A1E03927C
S21400A6B05A1C94461A1D9046DA1E91461A1F2F8081
S21400A6C0981E9246621CB5D10598AA1C1060AA1D59
S21400A6D0106050609060D060EF82DCE704221A427F
S21400A6E02FD14B465BB20CE7514646464A008046A1
S21400A6F059463800885249464A00594688524146CB
S21400A7004A0059468852039967464A0059465B00F4
S21400A7108852C852019B7F005B00C853C852029BF8
S21400A720049C5B00C852760063008853C852009BA6
S21400A7305B00C8520BB03CBC90469946A246AB465E
S21400A740F0BD154B300098474B4640081B1A5BB2CD
S21400A750D7E638003022134F2900B847EB7830226E
S21400A76023702B79290030006370B847EB783022CD
S21400A770E3702B79290040462371B8472B79A371E3
S21400A78010E7C04674990100418B00003C1400207D
S21400A790401B0020C8230020AFF70000089D0100E2
S21400A7A065F10000058D0000A42000205221002045
S21400A7B0C8530020201A002000D0FFFF3E1C0020B7
S21400A7C0F0B5DE46454657464E46E0B591B00BAC72
S21400A7D02200D24B0390583323CB23C203CB03C2B1
S21400A7E00020CF4B9847CF48CF4B84461B041A0C0B
S21400A7F01A43CE4B63441900CC4B04C39942FCD198
S21400A8003F23A34602935B4619785B7898465B46DF
S21400A8109D78DB7843449C4698454BDA4346542261
S21400A8205A43C24B46469A466D1852446F1EA9427A
S21400A8303CDA6346013B08009E4200D151E14645A2
S21400A84019D0C5239B014400A246B94C0130A1464D
S21400A85054464B441353854228D08142F1D0C31B43
S21400A8605C425C416342A02464002340C124A401EE
S21400A870A2465344E7E7C2239B014400A246AC4CE1
S21400A8800130A14654464B44135385420ED08142B4
S21400A890F1D0C31B5C1EA341029C5B42A343C424AD
S21400A8A0A401A2465344E8E7CC4652460136543249
S21400A8B06645BCD104239C4610ABE3449B45A2D11D
S21400A8C06C229446954B4832634494469846934B84
S21400A8D063449A4601239B4643461F681B79039AA6
S21400A8E0994643465D79DB795E469B1A5A42534148
S21400A8F042469279134360221E40764216405E3AE4
S21400A9001A4200D19BE18B4B380098474B46181AE9
S21400A91040B2C243D2170240D2B229281CDC3B7890
S21400A920002B19D02A214D438049AD188C466D0066
S21400A9306544390003E00B780235002B0CD07C48C8
S21400A9409B198446203B9B01634401312B80CB1B23
S21400A950D318DBB2292BEED908239C46E044D04519
S21400A960BAD1754E09AD308910222900734FB84709
S21400A9706F4A2B7894466D49714A9B0163448B520B
S21400A9806B78704A9B0163448B52AB786E4A9B018E
S21400A99063448B52A022EB78D2009B0163448B5217
S21400A9A02B796A4A9B0163448B52B0891022290096
S21400A9B0B8475F4A2B7894465C49654A9B016344D6
S21400A9C08B526B78634A9B0163448B52AB78624A26
S21400A9D09B0163448B52B522EB78D2009B01634403
S21400A9E08B522B795D4A9B0163448B52B368F268A5
S21400A9F0934200DB31E10398594A063843425841F6
S21400AA004342602018400B0056498C4663441D00A4
S21400AA1055494E2303E00B780232002B09D0444CF4
S21400AA201B18A446203B9B01634401311380AA42B5
S21400AA30F1D110219C2371564C4A8C460791D35A6B
S21400AA401A1F02924A4ADF1E92468A004949624409
S21400AA5052180692364ABF019446A82252009046E3
S21400AA600022674494465A1E023B0393424BBFB2F1
S21400AA709BB29B4605926246404B1E219D5C404B16
S21400AA809B5C1C00069B985C0023061D00280CDDC2
S21400AA905246A1461900013397871F310232984269
S21400AAA0F8DC4C469E4200DA8CE0204A414491464F
S21400AAB0490049446246A1462D18A944049209E07B
S21400AAC0039A1B4C9201A446013362440A80023169
S21400AAD09E4275DB9D42F3DC029A9945F1DD059AAC
S21400AAE0EFE746454ED0C7239B014400A246104CD4
S21400AAF00130A14654464B441353854200D1D5E657
S21400AB008142F0D0C31B5C1EA341029C5B42A34360
S21400AB10C924A401A2465344E7E7C046749901003D
S21400AB20F5E7000088080000C8530020401B0020FE
S21400AB30C8230020AFF700003C140020058D00005D
S21400AB40FA040000FC040000FE04000002050000F9
S21400AB50A2050000A4050000A6050000AA05000046
S21400AB60922200208A070000109D0100201A002073
S21400AB70E01D0020E0F9000008540020D912002053
S21400AB804D140020C223E14692469B01434C4200EE
S21400AB90A446544663440130A352A84200D183E63B
S21400ABA088420AD0C31B5A42534140225B4213409C
S21400ABB0C322920194466344E8E7C2239B01E5E77B
S21400ABC0049B9C4603002333252B11D85946434447
S21400ABD0334A5B00D15203002433262B08D043446B
S21400ABE05B00D152002803D1434625335B00D15287
S21400ABF0012399465333CC4499465433C844994666
S21400AC006346CA44052B00D035E7079B25491A0141
S21400AC108B185B685258187A8023127ADB0103433C
S21400AC20009238215022204C0020A0471F4B984706
S21400AC3011B03CBC90469946A246AB46F0BD0422F5
S21400AC401A4202D14B4658B263E6194B3800984771
S21400AC504B464008181A40B25BE6039B6020063B52
S21400AC605A425341134A5B42944618400C4B124AD0
S21400AC7063441D00114950324E2304E0137802311C
S21400AC80002B00D1D5E6054C1B18A446203B9B01A3
S21400AC90634401320B808D42F0D1CAE6C8230020FF
S21400ACA0401B002070E40300F9E50000E5E8000022
S21400ACB0AFF700008A070000749901009C2200206C
S21400ACC0F0B5DE4657464E464546E0B52448ADB09C
S21400ACD0244B98470123244A5370244B984700215D
S21400ACE00020234B9847E82200215200214B22489F
S21400ACF0984700231C4A0021137024A80C221D4BE1
S21400AD0098470023059314930E931C4B1C4A9946B0
S21400AD1027AB9846C02392469B014B441B041993CD
S21400AD201B0C1A93174B98470E9B0400C21AFA2363
S21400AD309B009A4201D900F053FF134B9847134BE0
S21400AD40124A1B8801331380114B9847064B1B7819
S21400AD500A2B01D900F03DFC0E4A9B00D3589F46B3
S21400AD607CA601001DE000003C1400206593000056
S21400AD70218900009FF700006C120020C8230020E5
S21400AD80201A002025E20000E5E500009C0B0020CC
S21400AD902DD90000A0980100E74BE84A1B88D2880E
S21400ADA09B1A1E22FF32934201DD00F046FEE44865
S21400ADB0E44B9847E248E34B74309847E048E14B51
S21400ADC0E8309847DE4C0421743C2000DE4B984760
S21400ADD000276A26E16A1222A35E0A689B1A0A699D
S21400ADE053431620225E48685B43121AC8684243E3
S21400ADF052439B188A68934201D300F0FFFE4B69CA
S21400AE00E362D24BDB690593994201D100F0F1FF72
S21400AE1001377434042FDDD16523CD4AD35C002B73
S21400AE2001D101F06EF8CA4BC94A12255D5FC84BC6
S21400AE301620185E8423D4580433D35824141B14C5
S21400AE40641B1B1A5B436443E418C24B9C4201D14B
S21400AE5001F007F81100D9228A5C002A01D001F01F
S21400AE60AAF8012301210593F823B94AB84ED2580F
S21400AE700433F35812141B14521B1B1A52435B4321
S21400AE80D218944208DD4E23FF33F35C002B03D127
S21400AE901400022102330593B623AD4A5B00D35853
S21400AEA0B8221B145B1BAA4D5200AA585B4312140F
S21400AEB0101A40431B189C4208DDC222FF32AA5CCF
S21400AEC0002A03D11C00032303210593742359434E
S21400AED09F4B5F18585879689F4B98479C4B0600C5
S21400AEE05B6806939A4B06991B68079318009A4B63
S21400AEF09847974B7A695B690500991A944B3A69AB
S21400AF001B69981A0693944B9847C0231B069C46C9
S21400AF1065442D1A914BAD0D6D008346585F8C4BE2
S21400AF208F4D1B6AC1171A0006930023A847F0230B
S21400AF301B039C4680234904C00B0843DB05604482
S21400AF409C465B466644F61AB60D844B76003F6A0E
S21400AF500502985F3A00824E0023C117B0474B04A3
S21400AF60C20BF0201A43CB1300211092119300035A
S21400AF70109A119B801A9941FF23CA171A40002382
S21400AF8016921793169A179B801859410B06020AB9
S21400AF901A4328000B12734D0021A8473A0A433281
S21400AFA000230021B047704B010C01209847059BF9
S21400AFB00021002B0AD080232100DB019C4200DA0E
S21400AFC01900FF20694B80039847C1B20120684BE7
S21400AFD09847684B9847684B98475D4B12229A5E95
S21400AFE05B4BA03A16215B5ED143C9170A40643B0F
S21400AFF010001292DA43D21713400F934E4B5F4A5B
S21400B0001B799B01D2183421525E11004039FF395A
S21400B010814202DC413AFF3A1292584A0F9994460E
S21400B020634436229B5E1A00C73A914201DBC83B56
S21400B0300F93414B45495B7A0133DAB23E4B1C9283
S21400B0405A723D23C85C023B1D90C95C824201D007
S21400B05000294BD03D4B188D820113004B441593AD
S21400B0603A4B5B690A93344B9B7A1F931B011B1860
S21400B0709B010B93012901D100F0E4FF18000A9C04
S21400B080844623000832110000226344A4461500BB
S21400B0900830159C494460448B42554184425241D5
S21400B0A02A4301D101F0A0F922001A43520701D029
S21400B0B001F09AF918008023DB002100E4180CC880
S21400B0C00CC18C42FBD11C9B1D9A93420ED30022CE
S21400B0D0194B19495A721F9B1C480133DBB28B72FD
S21400B0E03C21415C994201D8134B9A720F9D129CE9
S21400B0F0A9B2A0B20022224B98470020214B9847C5
S21400B10000231CAA1375424624B20E332DB21370C8
S21400B1102900002220001C4B98471CAB1B7D1CAA54
S21400B1201B18137520004346184C21AA2900A04777
S21400B13000239B46164C2DE09C0B00203C14002060
S21400B140E0120020FD600000417D00002C1200206F
S21400B1506C120020FFFFFF7F0D88000030E9020020
S21400B160D5F400008DF40000B1D6000065F10000B3
S21400B1700DD700006DC8000049CD0000A097010063
S21400B180ADD00000F5E70000E1C6000005CC0000E9
S21400B190CF1200202300533B02255D5F129B8020C8
S21400B1A0ED1A23004F3B02269E5F0F9B2278F61A6D
S21400B1B00223E3565200DB0FD218E31E1978C24B67
S21400B1C0D200C14F9B185B68BA585B5C525CC001EA
S21400B1D003431CA8007DBD4F009229003200B847EB
S21400B1E01CAB1B7D1CAA1B1813755A46A378571C4C
S21400B1F0812B01D100F0CDFD822B01D100F034FD72
S21400B200082B01D100F030FD042F01D100F046FDDF
S21400B2107434BB46BEE71CAB1C8C059BA34207D010
S21400B220202322009A431300472A01D100F0A1FFF1
S21400B23023B20593012508E0A54B9847002813D1B3
S21400B24053461A68A34B9A426DD8A34B9847A34B14
S21400B25098470028F0D0A24B9847A24B24A89847BE
S21400B2609B4B98470028EBD09F4B98479F4B4046F8
S21400B270984700210C229E4B24A8984743461A68FC
S21400B28006215B5E41460C268E5FB34201D100F07C
S21400B29039FC41460E20095E994201D100F041FC7E
S21400B2A004239B46013B9C4602200121002347467F
S21400B2B004243F5FBE4201D100F018FC46460E242F
S21400B2C0365FBE4201D100F029FC154208D0202787
S21400B2D077261CAC5B00E419E6520B0001006046C2
S21400B2E00224144207D0202766261CAC5B00E41913
S21400B2F0E6520B0001000420104206D020261CACAB
S21400B3005B006F30A419E0520B00A821114297D0C1
S21400B310202067221CA95B000918CA5253461A68E7
S21400B3206C4B9A4291D920221CAB1B8C9343572B13
S21400B33001D100F0FBFB532B01D100F0C8FC412BE0
S21400B34001D100F00EFD442B01D100F0ADFD462BDF
S21400B35001D100F03CFE472B03D120216548664B07
S21400B360984720221CAB5B8C9343572B01D100F0EF
S21400B370E9FB532B01D100F0A4FC412B01D100F0D6
S21400B380F6FC442B01D100F07DFD462B01D100F0E8
S21400B39018FE472B03D120215648574B98472022AA
S21400B3A01CAB9B8C9343572B00D1D6E3532B01D178
S21400B3B000F09FFC412B01D100F0CDFC442B01D1C5
S21400B3C000F06CFD462B01D100F019FE472B03D18F
S21400B3D020214848484B984720221CABDB8C9343DF
S21400B3E0572B00D1C4E3532B01D100F07CFC412B3A
S21400B3F001D100F0C2FC442B01D100F049FD462BE0
S21400B40001D100F0EAFD472B03D1202139483A4B01
S21400B410984720221CAB1B8D9343572B00D1B2E3D9
S21400B420532B01D100F059FC412B01D100F0ABFCAD
S21400B430442B01D100F020FD462B01D100F0D9FDB0
S21400B440472B03D120212B482B4B984720221CAB9F
S21400B4505B8D9343572B00D1A0E3532B01D100F013
S21400B4604EFC412B01D100F070FC442B01D100F0C2
S21400B470FDFC462B01D100F0B6FD472B00D051E471
S21400B48020211C481C4B98474CE41C4A1CAB1579E1
S21400B4901B8C002D01D100F03EFD110002224A71E6
S21400B4A0059A9A4201D101F088F820229343472B4F
S21400B4B001D100F053FD114B5879104B5978104BC1
S21400B4C098471CAB1C8CB3E670E40300F9E500005B
S21400B4D001E300000A020000A9E30000C1E2000048
S21400B4E0D1E20000E1E2000011E3000021E30000E9
S21400B4F09FF700006C120020496500003C140020F5
S21400B50095A400001CAB1B8C059A9A420CD02022F6
S21400B5109343472B08D1B833002211210020CD4C8D
S21400B520A0470223CC4A1370CB4B00205B790593CF
S21400B530CA4B9847199B1A99C9481943C94B844660
S21400B5401A00624402C39A42FCD1C748C74B243053
S21400B5509847C74F3B79059A9B46FB7901259B1A6E
S21400B5605A425341BA793E68134360221D406D42E9
S21400B57015405E3A7C791A4200D12AE3BD4B300072
S21400B58098475B46181A40B2C143C9170140C9B272
S21400B59029281ADC3378002B17D02A225443B14AC4
S21400B5A06418944664006444320003E0137802345E
S21400B5B0002B0AD05B19203B9B014B4401322380B1
S21400B5C0931BCB18DBB2292BF0D9AB4B0837BB4209
S21400B5D0C0D11CAB1C8C2BE61CAB1B8C059A9A426C
S21400B5E00CD020229343472B08D1B83300221121D8
S21400B5F00020984CA0470223974A1370964B0020D1
S21400B6005B790593954B9847199B1A99944819436B
S21400B610944B84461A00624402C39A42FCD1924874
S21400B620924B24309847904F28373B79059A9B4693
S21400B630FB7901259B1A5A425341BA793E68134357
S21400B64060221D406D4215405E3A7C791A4200D158
S21400B650B1E2884B300098475B46181A40B2C143A7
S21400B660C9170140C9B229281ADC3378002B17D035
S21400B6702A2254437B4A6418944664006444320089
S21400B68003E013780234002B0AD05B19203B9B01A1
S21400B6904B4401322380931BCB18DBB2292BF0D905
S21400B6A0764B08379F42C0D193E71CAB1B8C059A9C
S21400B6B09A420CD020229343472B08D1B83300225D
S21400B6C011210020634CA0470223634A1370624B8B
S21400B6D000205B790593614B9847199B1A9960483F
S21400B6E01943604B84461A00624402C39342FCD15D
S21400B6F05D485E4B24309847614F3B79059A9B46E0
S21400B700FB7901259B1A5A425341BA793E68134386
S21400B71060221D406D4215405E3A7C791A4200D187
S21400B72050E2544B300098475B46181A40B2C1436B
S21400B730C9170140C9B229281ADC3378002B17D064
S21400B7402A225443474A64189446640064443200EC
S21400B75003E013780234002B0AD05B19203B9B01D0
S21400B7604B4401322380931BCB18DBB2292BF0D934
S21400B770444B08379F42C0D12BE71CAB1C8C424B76
S21400B7801B88C82B00D853E50123334A00211370C9
S21400B790A8223E4BD2003E48984732493C4A3D4B91
S21400B7A0CA523B4A3C4B4032CA52394A3B4B803223
S21400B7B0CA52374A0233C032CA52354B5A1C384B2B
S21400B7C0FF32CA52324A374B4132FF32CA52304AEF
S21400B7D0354B8132FF32CA522D4A0233C132FF3214
S21400B7E0CA52802189008C46294B1E4963441A00A0
S21400B7F02E4BCA52902189008C46254B194963442A
S21400B8001A002B4BCA52A02189008C46204B1549A2
S21400B81063441A00274BCA52B02189008C461C4B41
S21400B820104963441A00ED23DB00CA52C021890088
S21400B8308C46174B0B4963441A001F4BCA52D02143
S21400B84089008C46124B074963441A001B4BCA52A8
S21400B850EEE4C0462DDF00003C140020F5E70000B3
S21400B86088080000401B0020749A0100C58900006B
S21400B870A09B0100AFF70000489C0100FC9A010065
S21400B880109B0100A09B01009C0B00209FF700006E
S21400B890887000205207000054070000560700007A
S21400B8A05A0700005C0700005E0700006207000001
S21400B8B064070000660700006A0700006C070000C7
S21400B8C01CAB1B8C059A9A420DD02024A343532B05
